{
  "_format": "hh-sol-artifact-1",
  "contractName": "Counter",
  "sourceName": "contracts/dapp.sol",
  "abi": [
    {
      "inputs": [
        {
          "internalType": "int256",
          "name": "_number",
          "type": "int256"
        }
      ],
      "stateMutability": "nonpayable",
      "type": "constructor"
    },
    {
      "inputs": [],
      "name": "count",
      "outputs": [
        {
          "internalType": "int256",
          "name": "",
          "type": "int256"
        }
      ],
      "stateMutability": "view",
      "type": "function"
    },
    {
      "inputs": [],
      "name": "degreese",
      "outputs": [],
      "stateMutability": "nonpayable",
      "type": "function"
    },
    {
      "inputs": [],
      "name": "increese",
      "outputs": [],
      "stateMutability": "nonpayable",
      "type": "function"
    },
    {
      "inputs": [],
      "name": "owner",
      "outputs": [
        {
          "internalType": "address",
          "name": "",
          "type": "address"
        }
      ],
      "stateMutability": "view",
      "type": "function"
    },
    {
      "inputs": [],
      "name": "value",
      "outputs": [
        {
          "internalType": "int256",
          "name": "",
          "type": "int256"
        }
      ],
      "stateMutability": "view",
      "type": "function"
    }
  ],
  "bytecode": "0x608060405234801561001057600080fd5b506040516103a63803806103a683398181016040528101906100329190610094565b336000806101000a81548173ffffffffffffffffffffffffffffffffffffffff021916908373ffffffffffffffffffffffffffffffffffffffff16021790555080600181905550506100de565b60008151905061008e816100c7565b92915050565b6000602082840312156100a657600080fd5b60006100b48482850161007f565b91505092915050565b6000819050919050565b6100d0816100bd565b81146100db57600080fd5b50565b6102b9806100ed6000396000f3fe608060405234801561001057600080fd5b50600436106100575760003560e01c806306661abd1461005c5780633fa4f2451461007a5780638da5cb5b14610098578063d1de1b84146100b6578063f46fc20e146100c0575b600080fd5b6100646100ca565b604051610071919061016b565b60405180910390f35b6100826100d0565b60405161008f919061016b565b60405180910390f35b6100a06100da565b6040516100ad9190610150565b60405180910390f35b6100be6100fe565b005b6100c8610118565b005b60015481565b6000600154905090565b60008054906101000a900473ffffffffffffffffffffffffffffffffffffffff1681565b600160008154809291906101119061020b565b9190505550565b6001600081548092919061012b906101c2565b9190505550565b61013b81610186565b82525050565b61014a81610198565b82525050565b60006020820190506101656000830184610132565b92915050565b60006020820190506101806000830184610141565b92915050565b6000610191826101a2565b9050919050565b6000819050919050565b600073ffffffffffffffffffffffffffffffffffffffff82169050919050565b60006101cd82610198565b91507f8000000000000000000000000000000000000000000000000000000000000000821415610200576101ff610254565b5b600182039050919050565b600061021682610198565b91507f7fffffffffffffffffffffffffffffffffffffffffffffffffffffffffffffff82141561024957610248610254565b5b600182019050919050565b7f4e487b7100000000000000000000000000000000000000000000000000000000600052601160045260246000fdfea2646970667358221220c683dc19f33e968cd01819cb58ab09826989ad037799dadd1048b901bd1156d164736f6c63430008040033",
  "linkReferences": {},
  "deployedLinkReferences": {}
}